:020000040800F2
:10000000780600208901000891010008930100088A
:100010009501000897010008990100080000000000
:100020000000000000000000000000009B0100082C
:100030009D010008000000009F010008A1080008C1
:10004000A3010008A3010008A3010008A301000800
:10005000A3010008A3010008A3010008A3010008F0
:10006000A3010008A3010008A3010008A3010008E0
:10007000A3010008A3010008A3010008A3010008D0
:10008000A3010008A3010008A3010008A3010008C0
:10009000A3010008A3010008A3010008A3010008B0
:1000A000A3010008A3010008A3010008A3010008A0
:1000B000A3010008A3010008A3010008A301000890
:1000C000A3010008A3010008A3010008A301000880
:1000D000AD040008A3010008A3010008A301000863
:1000E000A3010008A3010008A301000800F002F822
:1000F00000F03AF80AA090E8000C82448344AAF188
:100100000107DA4501D100F02FF8AFF2090EBAE885
:100110000F0013F0010F18BFFB1A43F0010318473B
:10012000040E0000240E0000103A24BF78C878C1E5
:10013000FAD8520724BF30C830C144BF04680C60ED
:10014000704700000023002400250026103A28BF35
:1001500078C1FBD8520728BF30C148BF0B60704739
:100160001FB51FBD10B510BD00F031F81146FFF7E7
:10017000F7FF00F08FFE00F04FF803B4FFF7F2FF37
:1001800003BC00F057F800000948804709480047C1
:10019000FEE7FEE7FEE7FEE7FEE7FEE7FEE7FEE737
:1001A000FEE7FEE704480549054A064B7047000094
:1001B00029090008ED0000087800002078060020DA
:1001C000780200207802002070477047704775461B
:1001D00000F02CF8AE4605006946534620F00700B3
:1001E000854618B020B5FFF7DDFFBDE820404FF091
:1001F00000064FF000074FF000084FF0000BAC4630
:10020000ACE8C009ACE8C009ACE8C009ACE8C0097A
:1002100021F007018D46704710B50446AFF300800A
:100220002046BDE81040FFF7A8BF00000048704717
:100230000800002001491820ABBEFEE7260002009E
:10024000704700002DE9F041CA7802F00F0CD30688
:1002500044BF8B784CEA030C09880B0621D0056853
:1002600000234FF001084FF00F0E002608E000BFFA
:10027000282A08BF47610136082E03F104030FD076
:1002800008FA06F70F42F6D00EFA03F425EA040442
:100290000CFA03F5482A45EA0405E9D10761EAE7C3
:1002A0000560B1F5807F38BFBDE8F0814468002368
:1002B0004FF4807E4FF00F08002607E0282A08BF81
:1002C00047610136082E03F1040310D00EFA06F739
:1002D00007EA0105BD42F4D108FA03F5AC430CFA74
:1002E00003F5482A44EA0504E8D10761E9E74460D8
:1002F000BDE8F081C068084018BF012070470000C9
:1003000041617047016170471023002A08BF142320
:10031000C150704780B582B00420012100F06AF816
:100320002020C1F20200019040F60000C4F201005A
:1003300001A9FFF787FF02B080BD000070B584B04F
:100340000C466021013840F20045C0F20101ADF8D1
:1003500006000020C4F200056E460091ADF80800CA
:100360002846314600F054FB2846082100F08CFB5B
:10037000601EADF806002846314600F00BFB28460B
:10038000082100F03FFB04B070BD000070B584B0E0
:100390000C466021013840F20045C0F20101ADF881
:1003A00006000020C4F200056E460091ADF808007A
:1003B0002846314600F070FB2846082100F0A8FBD3
:1003C000601EADF806002846314600F0A7FB28461F
:1003D000082100F0D3FB04B070BD0000002941F2F9
:1003E0001C01C4F202010A680CBF22EA000010439B
:1003F00008607047002941F21801C4F202010A683E
:100400000CBF22EA000010430860704710B541F2AB
:100410000404C4F20204226802F00C02082A41F229
:100420000022C0F27A021CD12368D4F800C0C3F3C2
:10043000834E5FEACC330EF1020C06D440F6001274
:10044000C0F23D020CFB02F20BE023689B0302D4D6
:100450000CFB02F205E040F60012C0F23D020CFB7C
:1004600002F20260226840F61473C2F30312C0F66F
:1004700000039A5C0168D14041602268C2F3022205
:100480009A5C21FA02F282602268C2F3C2229A5C6C
:1004900040F60073D140C1602268C0F60003C2F389
:1004A00081329A5CB1FBF2F1016110BD2DE9F04F90
:1004B00081B044F20045C4F20005A5F5406A5046FB
:1004C00000F050F940F26808C2F20008D8F80010B5
:1004D000002958D0064600BF2846402100F0ECFB1A
:1004E0000028F9D02846612100F048FCF7B2072423
:1004F00007E000BF284600F041FC002CA4F10104F5
:1005000014D027FA04F0C00708D000BF28464021C5
:1005100000F0D2FB0028F9D03121EBE7284640213A
:1005200000F0CAFB0028F9D03021E3E7284640213B
:1005300000F0C2FB0028F9D02846202100F01EFC64
:1005400040F26C0BC2F2000B00209BF80010C8F8C0
:10055000000040F26E0940F274080329C2F200095B
:10056000C2F200081FD8DFE801F00223123546F07E
:100570008000C0B2FF2832D078067ED4380739D543
:1005800041F2F81060E00120C8F800003CE046F0BD
:100590008000C0B2FF2822D078065CD4380729D565
:1005A00041F2301050E0A8F80000A9F8000021E066
:1005B00046F08000C0B2FF2811D0780660D438071A
:1005C00018D541F2F810A9F8000041F2D470A8F84B
:1005D00000000FE046F08000C0B2FF282ED105F5E4
:1005E000444020210022FFF78FFE9BF800000130DD
:1005F0008BF80000B9F800100020FFF79FFEB8F854
:1006000000100020FFF7C2FE05F5484528464FF4CC
:100610000041FFF76FFE01280BD128464FF400413F
:10062000FFF76EFE5046002100F09EF801B0BDE8D5
:10063000F08F00F009FC01B0BDE8F08F780613D40C
:100640003807D7D541F2CC00A9F8000041F270700C
:10065000A8F80000CEE741F27070A9F8000041F25E
:100660003010A8F80000C5E741F27070A9F800004A
:1006700041F2CC00A8F80000BCE741F2707001E044
:1006800041F2D470A9F8000041F2F810A8F8000077
:10069000B0E7000070B586B04FF480400121FFF74D
:1006A0009DFE08200121FFF7A5FE01200121FFF793
:1006B000A1FE43F6000444F20000C4F20004C0F2BC
:1006C000024004F5544505AE059028463146FFF733
:1006D000B9FD42F20000C1F60200059028463146FD
:1006E000FFF7B0FD48F20000C1F202000590284675
:1006F0003146FFF7A7FD4FF480400121FFF76EFE62
:100700004FF0827000904FF4003001900120C0F251
:1007100000200290382003906946204600F026F819
:1007200020466021012200F011F82046012100F04E
:1007300003F806B070BD00000288002918BF01212F
:1007400022F0400242EA8111018070470909012329
:1007500003FA01F1002A82880CBF22EA0101114349
:100760008180704780897047818170472DE9F04111
:1007700002880B8802F4415C4A88B1F804E043EA3D
:100780000C03CC881A430D8942EA0E024E8922439B
:100790008F892A43B1F80E8032433A4342EA080275
:1007A0000280828B22F400628283098A0182BDE882
:1007B000F081000080B500F001F880BD82B041F208
:1007C00004000021C4F202000191009150F8041CC1
:1007D00041F4803140F8041C50F8041C01F400314D
:1007E0000091019901310191009919B90199B1F56F
:1007F000A06FF1D150F8041C890354BF00210121DE
:1008000000910099012936D142F20001C4F202019F
:100810000A6842F010020A600A6822F003020A60C5
:100820000A6842F002020A60016801600168016022
:10083000016841F480610160016821F47C1101606C
:10084000016841F4E811016050F8041C41F0807126
:1008500040F8041C50F8041C8901FBD5016821F004
:1008600003010160016841F002010160016801F0CB
:100870000C010829FAD102B070470000B0B5013868
:100880000024B4EB106F18BFB0BD4EF21005CEF2CD
:100890000005686000F0ECFA0720AC602860B0BD8D
:1008A00040F27000C2F200000168002908BF7047E2
:1008B000016801390160704741F20400C4F202008E
:1008C000016801F00C01082941F20021C0F27A010F
:1008D00017D102680368C2F38342DB0302F102020C
:1008E00005D440F60011C0F23D01514309E0036810
:1008F0009B0301D4514304E040F60011C0F23D01D6
:10090000514340F20002C2F200021160006840F65A
:100910000471C0F30310C0F60001085C116821FAED
:1009200000F010607047000080B541F20000C4F292
:1009300002000168002241F0010101604168CFF628
:10094000FF021140416001684FF6FF72CFF6F66278
:1009500011400160016821F480210160416821F4A7
:10096000FE0141604FF41F018160FFF723FF4EF647
:100970000850CEF200004FF00061016080BD000021
:100980000288002918BF012122F0010211440180D0
:1009900070470000B0B5028C22F001020284038C83
:1009A0008288B0F818C00C8923F002032343A0F119
:1009B00080444D88A4F59634B1F800E04FEAB424A1
:1009C000072C43EA050313D8012505FA04F414F0B3
:1009D000E50F0DD04C8923F00C0324F004048D881E
:1009E00023438C892B4322F44072CD8922432A432E
:1009F0002CF0730545EA0E0582800583C98881863F
:100A00000384B0BD028B22F00802114301837047BA
:100A1000B0B5028C43F2004422F010020284028C32
:100A20008588B0F818C00B8922F0200242EA031230
:100A30004B88C4F20104B1F800E0A04242EA03127C
:100A400005D042F60043C4F20103984212D14B890B
:100A50006FF0400422F0C00204EA03138C881A43AA
:100A600042EA04128C8925F44063CD8943EA840369
:100A700043EA85052CF4E64343EA0E23858003838D
:100A8000C98801870284B0BD028B22F4006242EA69
:100A90000121018370470000B0B5028C43F200448D
:100AA00022F480720284028C8588B0F81CC00B8905
:100AB00022F4007242EA03224B88C4F20104B1F826
:100AC00000E0A04242EA032205D042F60043C4F20D
:100AD0000103984212D14B8940F2FF441B0222F4D9
:100AE0004062A3438C881A4342EA04228C8925F48D
:100AF0004053CD8943EA041343EA05152CF07303F0
:100B000043EA0E0385808383C98881870284B0BD50
:100B1000828B22F0080211438183704770B5028CEA
:100B200043F2004622F480520284048C8288838B34
:100B3000B1F800E00D89B1F802C0C4F20106B0427C
:100B400005D042F60046C4F20106B04204D18E89B7
:100B500022F4804242EA861223F4E64343EA0E235B
:100B600024F400548280838344EA0534C98844EA2B
:100B70000C32A0F84010028470BD0000828B22F479
:100B8000006242EA012181837047000040F6FF3392
:100B9000B0F800C0C4F2000398420FDCB0F1804FFF
:100BA0001ED040F20043C4F20003984218D040F631
:100BB0000003C4F20003984212D016E040F600434E
:100BC000C4F2000398420BD043F20043C4F2010385
:100BD000984205D042F60043C4F20103984204D182
:100BE0004B882CF0700243EA020C41F2004240F4C0
:100BF0008063C4F20002934204D0CA882CF440738C
:100C000042EA030CA0F800C08A888285A0F18042E5
:100C1000A2F596320B884FEAB222072A038507D83D
:100C2000012303FA02F212F0E50F1CBF097A0186D4
:100C3000012181827047000070B586B00520012136
:100C4000FFF7D8FB44F200440420C4F20004C1F6CC
:100C5000020004F5444505AE059028463146FFF7ED
:100C6000F1FA0820C0F20240059028463146FFF70D
:100C7000E9FA4FF400300121FFF7B0FB4FF41650B2
:100C8000019000204FF4402102900391ADF8100034
:100C900001A9204600F016F82046012100F002F8D4
:100CA00006B070BD8289002918BF012122F40052CC
:100CB00042EA4131818170470088084018BF012015
:100CC0007047000070B586B00446008A0D46C9889A
:100CD00020F4405008432082A0894EF6F3110840CA
:100CE000A9882A896B89084310431843A081A08AE8
:100CF000A98920F44070084301AEA0823046FFF776
:100D000085FB43F6000106F10800C4F201018C42A4
:100D100008BF06F10C0000681922B4F90C1050430A
:100D20002A680123B1F1FF3FC8BF022302FA03F191
:100D3000B0FBF1F048F21F51C5F2EB11A0FB01230B
:100D40005A096FF0630302FB0300B4F90C30032669
:100D5000B3F1FF3FC8BF042600FA06F000F13200ED
:100D6000A0FB01014FF00700C8BF0F2000EA51109F
:100D700040EA0210208106B070BD00006FF35F21D1
:100D800081807047B0B588B004200121FFF732FBA5
:100D900008200121FFF72EFB01200121FFF72AFB8C
:100DA000C02040F20044C1F60200C4F2000407ADC6
:100DB000079004F582302946FFF744FA0320C1F674
:100DC0000200079004F584302946FFF73BFA022021
:100DD0000121FFF703FB0A20049041F61F40059014
:100DE000002504A920468DF81850FFF7CFFE2046B5
:100DF0000121FFF7C5FD6020C0F20100CDF80650CB
:100E00006D46009020462946FFF7C4FD2046082184
:100E1000FFF7F8FD20462946FFF7FAFD2046082196
:100E2000FFF732FE20462946FFF736FE204608210E
:100E3000FFF76EFE20462946FFF770FE2046082188
:100E4000FFF79CFE08B0B0BD4EF28410CEF2000059
:100E500010210160BFF34F8FBFF36F8F7047000009
:100E60004EF20410CEF20000102101607047000025
:100E70004EF62350CEF20000F021017070470000C2
:100E800040F27001C2F20001086000BF086800284B
:100E9000FCD17047FFF7D0FEFFF774FFFFF7FAFBB6
:100EA000FFF738FAFFF708FD40F20000C2F2000039
:100EB000006844F6D351C1F26201A0FB0101880928
:100EC000FFF7DCFC00F004F88220FFF7D9FFF9E718
:100ED00010B543F60004C4F2000404F554404FF486
:100EE0000041FFF70FFA04F5504020210122FFF7DF
:100EF0000BFA20460021FFF737FCFFF7B1FF10BDCA
:100F000002040608000000000000000001020304C3
:100F1000060708090000000001020304010203049F
:100F200006070809440F0008000000200400000024
:100F300028010008480F0008080000207006000083
:080F40004401000800A24A046C
:040000050800018965
:00000001FF
